{
  "contractName": "KeyGame",
  "abi": [
    {
      "inputs": [],
      "stateMutability": "nonpayable",
      "type": "constructor"
    },
    {
      "anonymous": false,
      "inputs": [
        {
          "indexed": true,
          "internalType": "address",
          "name": "buyer",
          "type": "address"
        },
        {
          "indexed": true,
          "internalType": "uint256",
          "name": "id",
          "type": "uint256"
        },
        {
          "indexed": false,
          "internalType": "uint256",
          "name": "price",
          "type": "uint256"
        },
        {
          "components": [
            {
              "internalType": "uint256",
              "name": "id",
              "type": "uint256"
            },
            {
              "internalType": "uint256",
              "name": "index",
              "type": "uint256"
            },
            {
              "internalType": "uint256",
              "name": "create",
              "type": "uint256"
            },
            {
              "internalType": "uint256",
              "name": "price",
              "type": "uint256"
            },
            {
              "internalType": "uint256",
              "name": "cash",
              "type": "uint256"
            },
            {
              "internalType": "address",
              "name": "owner",
              "type": "address"
            },
            {
              "internalType": "address[]",
              "name": "masters",
              "type": "address[]"
            }
          ],
          "indexed": false,
          "internalType": "struct KeyGame.Key",
          "name": "newKey",
          "type": "tuple"
        }
      ],
      "name": "KeyBought",
      "type": "event"
    },
    {
      "inputs": [],
      "name": "cashPool",
      "outputs": [
        {
          "internalType": "uint256",
          "name": "",
          "type": "uint256"
        }
      ],
      "stateMutability": "view",
      "type": "function",
      "constant": true
    },
    {
      "inputs": [],
      "name": "current",
      "outputs": [
        {
          "internalType": "uint256",
          "name": "id",
          "type": "uint256"
        },
        {
          "internalType": "uint256",
          "name": "index",
          "type": "uint256"
        },
        {
          "internalType": "uint256",
          "name": "create",
          "type": "uint256"
        },
        {
          "internalType": "uint256",
          "name": "price",
          "type": "uint256"
        },
        {
          "internalType": "uint256",
          "name": "cash",
          "type": "uint256"
        },
        {
          "internalType": "address",
          "name": "owner",
          "type": "address"
        }
      ],
      "stateMutability": "view",
      "type": "function",
      "constant": true
    },
    {
      "inputs": [
        {
          "internalType": "uint256",
          "name": "",
          "type": "uint256"
        }
      ],
      "name": "keys",
      "outputs": [
        {
          "internalType": "uint256",
          "name": "id",
          "type": "uint256"
        },
        {
          "internalType": "uint256",
          "name": "index",
          "type": "uint256"
        },
        {
          "internalType": "uint256",
          "name": "create",
          "type": "uint256"
        },
        {
          "internalType": "uint256",
          "name": "price",
          "type": "uint256"
        },
        {
          "internalType": "uint256",
          "name": "cash",
          "type": "uint256"
        },
        {
          "internalType": "address",
          "name": "owner",
          "type": "address"
        }
      ],
      "stateMutability": "view",
      "type": "function",
      "constant": true
    },
    {
      "inputs": [
        {
          "internalType": "address",
          "name": "coin",
          "type": "address"
        }
      ],
      "name": "setCoin",
      "outputs": [],
      "stateMutability": "nonpayable",
      "type": "function"
    },
    {
      "inputs": [],
      "name": "getHistroy",
      "outputs": [
        {
          "components": [
            {
              "internalType": "uint256",
              "name": "id",
              "type": "uint256"
            },
            {
              "internalType": "uint256",
              "name": "index",
              "type": "uint256"
            },
            {
              "internalType": "uint256",
              "name": "create",
              "type": "uint256"
            },
            {
              "internalType": "uint256",
              "name": "price",
              "type": "uint256"
            },
            {
              "internalType": "uint256",
              "name": "cash",
              "type": "uint256"
            },
            {
              "internalType": "address",
              "name": "owner",
              "type": "address"
            },
            {
              "internalType": "address[]",
              "name": "masters",
              "type": "address[]"
            }
          ],
          "internalType": "struct KeyGame.Key[]",
          "name": "",
          "type": "tuple[]"
        }
      ],
      "stateMutability": "view",
      "type": "function",
      "constant": true
    },
    {
      "inputs": [
        {
          "internalType": "uint256",
          "name": "_id",
          "type": "uint256"
        }
      ],
      "name": "buyKey",
      "outputs": [],
      "stateMutability": "payable",
      "type": "function",
      "payable": true
    }
  ],
  "bytecode": "0x608060405260006009556000600a55662386f26fc10000600b553480156200002657600080fd5b5033600160006101000a81548173ffffffffffffffffffffffffffffffffffffffff021916908373ffffffffffffffffffffffffffffffffffffffff1602179055506200007b600b546200011e60201b60201c565b6002600082015181600001556020820151816001015560408201518160020155606082015181600301556080820151816004015560a08201518160050160006101000a81548173ffffffffffffffffffffffffffffffffffffffff021916908373ffffffffffffffffffffffffffffffffffffffff16021790555060c082015181600601908051906020019062000114929190620004bb565b50905050620007b4565b620001286200054a565b600960008154809291906200013d906200064c565b919050555060004244336040516020016200015b9392919062000742565b6040516020818303038152906040528051906020012060001c90506040518060e00160405280828152602001600954815260200142815260200184815260200160008152602001600073ffffffffffffffffffffffffffffffffffffffff168152602001600067ffffffffffffffff811115620001dd57620001dc62000785565b5b6040519080825280602002602001820160405280156200020c5781602001602082028036833780820191505090505b508152506002600082015181600001556020820151816001015560408201518160020155606082015181600301556080820151816004015560a08201518160050160006101000a81548173ffffffffffffffffffffffffffffffffffffffff021916908373ffffffffffffffffffffffffffffffffffffffff16021790555060c0820151816006019080519060200190620002a9929190620004bb565b50905050600c6002908060018154018082558091505060019003906000526020600020906007020160009091909190915060008201548160000155600182015481600101556002820154816002015560038201548160030155600482015481600401556005820160009054906101000a900473ffffffffffffffffffffffffffffffffffffffff168160050160006101000a81548173ffffffffffffffffffffffffffffffffffffffff021916908373ffffffffffffffffffffffffffffffffffffffff16021790555060068201816006019080546200038b9291906200059d565b50505060026040518060e001604052908160008201548152602001600182015481526020016002820154815260200160038201548152602001600482015481526020016005820160009054906101000a900473ffffffffffffffffffffffffffffffffffffffff1673ffffffffffffffffffffffffffffffffffffffff1673ffffffffffffffffffffffffffffffffffffffff16815260200160068201805480602002602001604051908101604052809291908181526020018280548015620004aa57602002820191906000526020600020905b8160009054906101000a900473ffffffffffffffffffffffffffffffffffffffff1673ffffffffffffffffffffffffffffffffffffffff16815260200190600101908083116200045f575b505050505081525050915050919050565b82805482825590600052602060002090810192821562000537579160200282015b82811115620005365782518260006101000a81548173ffffffffffffffffffffffffffffffffffffffff021916908373ffffffffffffffffffffffffffffffffffffffff16021790555091602001919060010190620004dc565b5b509050620005469190620005f4565b5090565b6040518060e001604052806000815260200160008152602001600081526020016000815260200160008152602001600073ffffffffffffffffffffffffffffffffffffffff168152602001606081525090565b828054828255906000526020600020908101928215620005e15760005260206000209182015b82811115620005e0578254825591600101919060010190620005c3565b5b509050620005f09190620005f4565b5090565b5b808211156200060f576000816000905550600101620005f5565b5090565b7f4e487b7100000000000000000000000000000000000000000000000000000000600052601160045260246000fd5b6000819050919050565b6000620006598262000642565b91507fffffffffffffffffffffffffffffffffffffffffffffffffffffffffffffffff82036200068e576200068d62000613565b5b600182019050919050565b6000819050919050565b620006b8620006b28262000642565b62000699565b82525050565b600073ffffffffffffffffffffffffffffffffffffffff82169050919050565b6000620006eb82620006be565b9050919050565b60008160601b9050919050565b60006200070c82620006f2565b9050919050565b60006200072082620006ff565b9050919050565b6200073c6200073682620006de565b62000713565b82525050565b6000620007508286620006a3565b602082019150620007628285620006a3565b60208201915062000774828462000727565b601482019150819050949350505050565b7f4e487b7100000000000000000000000000000000000000000000000000000000600052604160045260246000fd5b6119c680620007c46000396000f3fe6080604052600436106100555760003560e01c80630cb6aaf11461005a578063475054421461009c578063758ac008146100c757806382e46b75146100f25780639fa6a6e31461011b5780639fef93f81461014b575b600080fd5b34801561006657600080fd5b50610081600480360381019061007c9190610ecb565b610167565b60405161009396959493929190610f48565b60405180910390f35b3480156100a857600080fd5b506100b16101d3565b6040516100be9190610fa9565b60405180910390f35b3480156100d357600080fd5b506100dc6101d9565b6040516100e991906111ef565b60405180910390f35b3480156100fe57600080fd5b506101196004803603810190610114919061123d565b61034e565b005b34801561012757600080fd5b50610130610421565b60405161014296959493929190610f48565b60405180910390f35b61016560048036038101906101609190610ecb565b61046b565b005b600c818154811061017757600080fd5b90600052602060002090600702016000915090508060000154908060010154908060020154908060030154908060040154908060050160009054906101000a900473ffffffffffffffffffffffffffffffffffffffff16905086565b600a5481565b6060600c805480602002602001604051908101604052809291908181526020016000905b8282101561034557838290600052602060002090600702016040518060e001604052908160008201548152602001600182015481526020016002820154815260200160038201548152602001600482015481526020016005820160009054906101000a900473ffffffffffffffffffffffffffffffffffffffff1673ffffffffffffffffffffffffffffffffffffffff1673ffffffffffffffffffffffffffffffffffffffff1681526020016006820180548060200260200160405190810160405280929190818152602001828054801561032d57602002820191906000526020600020905b8160009054906101000a900473ffffffffffffffffffffffffffffffffffffffff1673ffffffffffffffffffffffffffffffffffffffff16815260200190600101908083116102e3575b505050505081525050815260200190600101906101fd565b50505050905090565b600160009054906101000a900473ffffffffffffffffffffffffffffffffffffffff1673ffffffffffffffffffffffffffffffffffffffff163373ffffffffffffffffffffffffffffffffffffffff16146103de576040517f08c379a00000000000000000000000000000000000000000000000000000000081526004016103d5906112ed565b60405180910390fd5b806000806101000a81548173ffffffffffffffffffffffffffffffffffffffff021916908373ffffffffffffffffffffffffffffffffffffffff16021790555050565b60028060000154908060010154908060020154908060030154908060040154908060050160009054906101000a900473ffffffffffffffffffffffffffffffffffffffff16905086565b60026000015481146104b2576040517f08c379a00000000000000000000000000000000000000000000000000000000081526004016104a990611359565b60405180910390fd5b60008060009054906101000a900473ffffffffffffffffffffffffffffffffffffffff1673ffffffffffffffffffffffffffffffffffffffff1663dd62ed3e33306040518363ffffffff1660e01b8152600401610510929190611379565b602060405180830381865afa15801561052d573d6000803e3d6000fd5b505050506040513d601f19601f8201168201806040525081019061055191906113b7565b905060026003015481101561059b576040517f08c379a000000000000000000000000000000000000000000000000000000000815260040161059290611430565b60405180910390fd5b60008054906101000a900473ffffffffffffffffffffffffffffffffffffffff1673ffffffffffffffffffffffffffffffffffffffff166323b872dd33306002600301546040518463ffffffff1660e01b81526004016105fd93929190611450565b6020604051808303816000875af115801561061c573d6000803e3d6000fd5b505050506040513d601f19601f8201168201806040525081019061064091906114bf565b5033600260050160006101000a81548173ffffffffffffffffffffffffffffffffffffffff021916908373ffffffffffffffffffffffffffffffffffffffff1602179055506002600d60003373ffffffffffffffffffffffffffffffffffffffff1673ffffffffffffffffffffffffffffffffffffffff16815260200190815260200160002060008201548160000155600182015481600101556002820154816002015560038201548160030155600482015481600401556005820160009054906101000a900473ffffffffffffffffffffffffffffffffffffffff168160050160006101000a81548173ffffffffffffffffffffffffffffffffffffffff021916908373ffffffffffffffffffffffffffffffffffffffff1602179055506006820181600601908054610775929190610d44565b5090505060006002806003015461078c919061154a565b905060005b600c805490508110156108d5573373ffffffffffffffffffffffffffffffffffffffff16600c82815481106107c9576107c861157b565b5b906000526020600020906007020160050160009054906101000a900473ffffffffffffffffffffffffffffffffffffffff1673ffffffffffffffffffffffffffffffffffffffff16036108c257600c818154811061082a5761082961157b565b5b9060005260206000209060070201600601600260050160009054906101000a900473ffffffffffffffffffffffffffffffffffffffff169080600181540180825580915050600190039060005260206000200160009091909190916101000a81548173ffffffffffffffffffffffffffffffffffffffff021916908373ffffffffffffffffffffffffffffffffffffffff1602179055505b80806108cd906115aa565b915050610791565b506001600c805490506108e891906115f2565b816108f3919061154a565b600260040160008282546109079190611626565b9250508190555060026004015460026003015461092491906115f2565b600a60008282546109359190611626565b9250508190555061095560028060030154610950919061165a565b6109b7565b506002600001543373ffffffffffffffffffffffffffffffffffffffff167fde9d12ef49aab6956afb308bc12fb700ba6e3bb261b203ef392a7c5a4fc85d9060026003015460026040516109aa92919061188b565b60405180910390a3505050565b6109bf610d96565b600960008154809291906109d2906115aa565b919050555060004244336040516020016109ee93929190611924565b6040516020818303038152906040528051906020012060001c90506040518060e00160405280828152602001600954815260200142815260200184815260200160008152602001600073ffffffffffffffffffffffffffffffffffffffff168152602001600067ffffffffffffffff811115610a6d57610a6c611961565b5b604051908082528060200260200182016040528015610a9b5781602001602082028036833780820191505090505b508152506002600082015181600001556020820151816001015560408201518160020155606082015181600301556080820151816004015560a08201518160050160006101000a81548173ffffffffffffffffffffffffffffffffffffffff021916908373ffffffffffffffffffffffffffffffffffffffff16021790555060c0820151816006019080519060200190610b36929190610de9565b50905050600c6002908060018154018082558091505060019003906000526020600020906007020160009091909190915060008201548160000155600182015481600101556002820154816002015560038201548160030155600482015481600401556005820160009054906101000a900473ffffffffffffffffffffffffffffffffffffffff168160050160006101000a81548173ffffffffffffffffffffffffffffffffffffffff021916908373ffffffffffffffffffffffffffffffffffffffff1602179055506006820181600601908054610c16929190610d44565b50505060026040518060e001604052908160008201548152602001600182015481526020016002820154815260200160038201548152602001600482015481526020016005820160009054906101000a900473ffffffffffffffffffffffffffffffffffffffff1673ffffffffffffffffffffffffffffffffffffffff1673ffffffffffffffffffffffffffffffffffffffff16815260200160068201805480602002602001604051908101604052809291908181526020018280548015610d3357602002820191906000526020600020905b8160009054906101000a900473ffffffffffffffffffffffffffffffffffffffff1673ffffffffffffffffffffffffffffffffffffffff1681526020019060010190808311610ce9575b505050505081525050915050919050565b828054828255906000526020600020908101928215610d855760005260206000209182015b82811115610d84578254825591600101919060010190610d69565b5b509050610d929190610e73565b5090565b6040518060e001604052806000815260200160008152602001600081526020016000815260200160008152602001600073ffffffffffffffffffffffffffffffffffffffff168152602001606081525090565b828054828255906000526020600020908101928215610e62579160200282015b82811115610e615782518260006101000a81548173ffffffffffffffffffffffffffffffffffffffff021916908373ffffffffffffffffffffffffffffffffffffffff16021790555091602001919060010190610e09565b5b509050610e6f9190610e73565b5090565b5b80821115610e8c576000816000905550600101610e74565b5090565b600080fd5b6000819050919050565b610ea881610e95565b8114610eb357600080fd5b50565b600081359050610ec581610e9f565b92915050565b600060208284031215610ee157610ee0610e90565b5b6000610eef84828501610eb6565b91505092915050565b610f0181610e95565b82525050565b600073ffffffffffffffffffffffffffffffffffffffff82169050919050565b6000610f3282610f07565b9050919050565b610f4281610f27565b82525050565b600060c082019050610f5d6000830189610ef8565b610f6a6020830188610ef8565b610f776040830187610ef8565b610f846060830186610ef8565b610f916080830185610ef8565b610f9e60a0830184610f39565b979650505050505050565b6000602082019050610fbe6000830184610ef8565b92915050565b600081519050919050565b600082825260208201905092915050565b6000819050602082019050919050565b610ff981610e95565b82525050565b61100881610f27565b82525050565b600081519050919050565b600082825260208201905092915050565b6000819050602082019050919050565b60006110468383610fff565b60208301905092915050565b6000602082019050919050565b600061106a8261100e565b6110748185611019565b935061107f8361102a565b8060005b838110156110b0578151611097888261103a565b97506110a283611052565b925050600181019050611083565b5085935050505092915050565b600060e0830160008301516110d56000860182610ff0565b5060208301516110e86020860182610ff0565b5060408301516110fb6040860182610ff0565b50606083015161110e6060860182610ff0565b5060808301516111216080860182610ff0565b5060a083015161113460a0860182610fff565b5060c083015184820360c086015261114c828261105f565b9150508091505092915050565b600061116583836110bd565b905092915050565b6000602082019050919050565b600061118582610fc4565b61118f8185610fcf565b9350836020820285016111a185610fe0565b8060005b858110156111dd57848403895281516111be8582611159565b94506111c98361116d565b925060208a019950506001810190506111a5565b50829750879550505050505092915050565b60006020820190508181036000830152611209818461117a565b905092915050565b61121a81610f27565b811461122557600080fd5b50565b60008135905061123781611211565b92915050565b60006020828403121561125357611252610e90565b5b600061126184828501611228565b91505092915050565b600082825260208201905092915050565b7f4f6e6c79206f776e65722063616e2063616c6c20746869732066756e6374696f60008201527f6e2e000000000000000000000000000000000000000000000000000000000000602082015250565b60006112d760228361126a565b91506112e28261127b565b604082019050919050565b60006020820190508181036000830152611306816112ca565b9050919050565b7f57726f6e67206b65792069640000000000000000000000000000000000000000600082015250565b6000611343600c8361126a565b915061134e8261130d565b602082019050919050565b6000602082019050818103600083015261137281611336565b9050919050565b600060408201905061138e6000830185610f39565b61139b6020830184610f39565b9392505050565b6000815190506113b181610e9f565b92915050565b6000602082840312156113cd576113cc610e90565b5b60006113db848285016113a2565b91505092915050565b7f4e6f7420656e6f75676820616c6c6f77616e6365000000000000000000000000600082015250565b600061141a60148361126a565b9150611425826113e4565b602082019050919050565b600060208201905081810360008301526114498161140d565b9050919050565b60006060820190506114656000830186610f39565b6114726020830185610f39565b61147f6040830184610ef8565b949350505050565b60008115159050919050565b61149c81611487565b81146114a757600080fd5b50565b6000815190506114b981611493565b92915050565b6000602082840312156114d5576114d4610e90565b5b60006114e3848285016114aa565b91505092915050565b7f4e487b7100000000000000000000000000000000000000000000000000000000600052601260045260246000fd5b7f4e487b7100000000000000000000000000000000000000000000000000000000600052601160045260246000fd5b600061155582610e95565b915061156083610e95565b9250826115705761156f6114ec565b5b828204905092915050565b7f4e487b7100000000000000000000000000000000000000000000000000000000600052603260045260246000fd5b60006115b582610e95565b91507fffffffffffffffffffffffffffffffffffffffffffffffffffffffffffffffff82036115e7576115e661151b565b5b600182019050919050565b60006115fd82610e95565b915061160883610e95565b92508282039050818111156116205761161f61151b565b5b92915050565b600061163182610e95565b915061163c83610e95565b92508282019050808211156116545761165361151b565b5b92915050565b600061166582610e95565b915061167083610e95565b925082820261167e81610e95565b915082820484148315176116955761169461151b565b5b5092915050565b60008160001c9050919050565b6000819050919050565b60006116c66116c18361169c565b6116a9565b9050919050565b600073ffffffffffffffffffffffffffffffffffffffff82169050919050565b60006117006116fb8361169c565b6116cd565b9050919050565b600081549050919050565b60008190508160005260206000209050919050565b600061173382546116ed565b9050919050565b6000600182019050919050565b600061175282611707565b61175c8185611019565b935061176783611712565b8060005b8381101561179f5761177c82611727565b611786888261103a565b97506117918361173a565b92505060018101905061176b565b5085935050505092915050565b600060e0830160008084015490506117c3816116b3565b6117d06000870182610ff0565b50600184015490506117e1816116b3565b6117ee6020870182610ff0565b50600284015490506117ff816116b3565b61180c6040870182610ff0565b506003840154905061181d816116b3565b61182a6060870182610ff0565b506004840154905061183b816116b3565b6118486080870182610ff0565b5060058401549050611859816116ed565b61186660a0870182610fff565b506006840185830360c087015261187d8382611747565b925050819250505092915050565b60006040820190506118a06000830185610ef8565b81810360208301526118b281846117ac565b90509392505050565b6000819050919050565b6118d66118d182610e95565b6118bb565b82525050565b60008160601b9050919050565b60006118f4826118dc565b9050919050565b6000611906826118e9565b9050919050565b61191e61191982610f27565b6118fb565b82525050565b600061193082866118c5565b60208201915061194082856118c5565b602082019150611950828461190d565b601482019150819050949350505050565b7f4e487b7100000000000000000000000000000000000000000000000000000000600052604160045260246000fdfea26469706673582212206e478a43e52261c3800819ed28b533da0b57a13fdb201e8e735e4cd1e9a3a78964736f6c63430008110033",
  "immutableReferences": {},
  "source": "// SPDX-License-Identifier: MIT\npragma solidity ^0.8.17;\n\nimport \"@openzeppelin/contracts/token/ERC20/IERC20.sol\";\n\ncontract KeyGame {\n    struct Key {\n        uint256 id;\n        uint256 index;\n        uint256 create;\n        uint256 price;\n        uint256 cash;\n        address owner;\n        address[] masters;\n    }\n\n    IERC20 _coin;\n    address _owner;\n    Key public current;\n    uint256 _index = 0;\n    uint256 public cashPool = 0;\n    uint256 _initPrice = 0.01 ether;\n    Key [] public keys;\n    mapping(address => Key) _keys;\n\n    \n    event KeyBought(address indexed buyer, uint256 indexed id, uint256 price, Key newKey);\n\n    constructor() {\n        _owner = msg.sender;\n        current = _generateKey(_initPrice);\n    }\n\n    modifier onlyOwner() {\n        require(msg.sender == _owner, \"Only owner can call this function.\");\n        _;\n    }\n\n    function setCoin(address coin) public onlyOwner {\n        _coin = IERC20(coin);\n    }\n\n    function _generateKey(uint256 _price) internal returns (Key memory) {\n        _index++;\n        uint256 id = uint256(keccak256(abi.encodePacked(block.timestamp, block.difficulty, msg.sender)));\n        current = Key(id, _index, block.timestamp, _price, 0, address(0), new address[](0));\n        keys.push(current);\n        return current;\n    }\n\n    function getHistroy() public view returns (Key[] memory) {\n        return keys;\n    }\n\n    function buyKey(uint256 _id) public payable {\n        require(_id == current.id, \"Wrong key id\");\n        uint256 amount = _coin.allowance(msg.sender, address(this));\n\n        require(amount >= current.price, \"Not enough allowance\");\n        _coin.transferFrom(msg.sender, address(this), current.price);\n\n        current.owner = msg.sender;\n        _keys[msg.sender] = current;\n\n        uint256 money = current.price / 2;\n        for(uint256 i = 0; i < keys.length; i++) {\n            if(keys[i].owner == msg.sender) {\n                keys[i].masters.push(current.owner);\n            }\n        }\n        current.cash += money / (keys.length - 1);\n        cashPool += current.price - current.cash;\n\n        _generateKey(current.price * 2);\n        emit KeyBought(msg.sender, current.id, current.price, current);\n    }\n}",
  "sourcePath": "/Users/x/truffle/vite-game/contracts/KeyGame.sol",
  "compiler": {
    "name": "solc",
    "version": "0.8.17+commit.8df45f5f.Emscripten.clang"
  },
  "schemaVersion": "3.4.11",
  "updatedAt": "2022-12-24T07:08:43.204Z",
  "networkType": "ethereum",
  "devdoc": {
    "kind": "dev",
    "methods": {},
    "version": 1
  },
  "userdoc": {
    "kind": "user",
    "methods": {},
    "version": 1
  }
}